:020000040800F2
:10000000E0160020450100082D0900082509000818
:1000100029090008630700081D0E00080000000001
:10002000000000000000000000000000150B0008A8
:100030000908000800000000B10A0008290C0008A7
:100040005F0100085F0100085F0100085F01000810
:100050005F0100085F0100085F0100085F01000800
:100060005F0100085F0100085F0100085F010008F0
:100070005F0100085F0100085F0100085F010008E0
:100080005F0100085F0100085F0100085F010008D0
:100090005F0100085F0100085F0100085F010008C0
:1000A0005F0100085F0100085F0100085F010008B0
:1000B0005F0100085F0100085F0100085F010008A0
:1000C0005F0100085F0100085F0100085F01000890
:1000D0005F0100085F0100085F0100085F01000880
:1000E0005F0100085F0100085F0100085F01000870
:1000F0005F0100085F0100085F0100085F01000860
:100100005F0100085F0100085F0100085F0100084F
:100110005F0100085F0100085F0100085F0100083F
:100120005F0100085F0100085F0100085F0100082F
:10013000DFF80CD000F076FA004800472D180008D0
:10014000E01600200648804706480047FEE7FEE725
:10015000FEE7FEE7FEE7FEE7FEE7FEE7FEE7FEE777
:100160002D0C000831010008002800DA40427047D9
:1001700040EA01039B0703D009E008C9121F08C029
:10018000042AFAD203E011F8013B00F8013B521EA9
:10019000F9D270472DE9FE4F804681EA0300C00F77
:1001A0000C46009021F0004123F00045B8EB02001E
:1001B000A94105D24046214690461C460B460246C0
:1001C00023F00040104347D0270DC7F30A00C3F3C4
:1001D0000A510290401A019040286BDAC3F31300D1
:1001E00040F4801B0098924620B10023D2EB030A12
:1001F00063EB0B0B01985946C0F14002504600F0EA
:100200007BF906460D4650465946019A00F083F99F
:1002100010EB08006141002487EA115284EAE77379
:100220001A4340D0009A62B3019A012A4FEA07525A
:1002300015DC001B61EB02014FF0004202EA07529D
:10024000CDE90042001C41F5801132462B4600F0FA
:1002500083F903B0BDE8F08F40462146F9E7001B63
:1002600061EB0201001C41F5801300185B4120186E
:10027000A2F5001747EB030140EAD570B6196D41AE
:1002800011E06D084FEA360645EAC0754FEA07529D
:10029000001B61EB0201001C41F5801149084FEA87
:1002A00030000019514132462B4603B0BDE8F04FF3
:1002B00000F043B90098012240000023D0EB020275
:1002C00063EBE073009821464FEAE074B8EB00005E
:1002D00061EB0401E9E783F000435BE781F0004153
:1002E00058E72DE9FE4F81EA030404F0004421F0B1
:1002F000004100944FF0000B23F0004350EA01044A
:100300005ED052EA03045BD0C3F30A54C1F30A552A
:100310002C44A4F2F3340194A0FB0254C1F3130162
:1003200041F48011C3F3130343F4801301FB02442F
:1003300000FB034E840A970A44EA815447EA835734
:10034000A4FB076802958D0A05FB07854FEA932CED
:1003500004FB0C542705029D4FEA065847EA16375E
:10036000B5EB08056EEB070C870E920E47EA811776
:1003700042EA8312A7FB0201B6EB0B0164EB000417
:100380002B0D43EA0C335E1844EB1C50DA46514601
:10039000E7FB0201C5F313044FEA0B3343EA14539E
:1003A0004FEA0432019C43EA0603A4F10C040294D0
:1003B000009CCDE900B400F0CFF803B0BDE8F08FA9
:1003C00000200146F9E72DE9F04D81EA030404F02D
:1003D000004B21F0004514464FF0000A23F0004185
:1003E00050EA050220D054EA01021DD0C5F30A5795
:1003F0000246C5F31303C1F31300C1F30A5640F4D8
:10040000801543F48013A7EB0608101BD64608F2AC
:10041000FD3873EB050002D308F1010801E09218E2
:100420005B41B8F1000F03DA00200146BDE8F08D12
:1004300000204FF48011064684460EE0171B73EB34
:10044000050705D3121B63EB050306434CEA010CB9
:1004500049084FEA300092185B4150EA0107EDD19C
:1004600052EA030012D082EA040083EA050108433D
:1004700005D0101BAB4106D20122002306E000226A
:100480004FF0004302E06FF0010253101AEB060038
:100490004CEB085110EB0A0041EB0B01BDE8F04DAD
:1004A00000F04BB80EB5C10F80EAE0700844CA07EF
:1004B000002140F233438DE80E000A460B4600F05F
:1004C0004BF803B000BD000030B5041E71F100040C
:1004D00004DB4FF00044404264EB0101141E73F151
:1004E000000405DB1C464FF00043524263EB04035B
:1004F000994208BF904230BD202A04DB203A00FA1E
:1005000002F1002070479140C2F1200320FA03F36A
:10051000194390407047202A06DBCB17203A41FA56
:1005200002F043EAE07306E041FA02F3D040C2F180
:100530002002914008431946704710B5141E73F10C
:10054000000408DA401C41F1000192185B411A4393
:1005500001D120F0010010BD2DE9F04D92469B46DF
:1005600011B1B1FA81F202E0B0FA80F22032904685
:10057000FFF7C2FF04460F4640EA0A0041EA0B01BA
:1005800053465A46084313D0114653EA010019D086
:10059000C8F14002504600F057F805460E46504656
:1005A00059464246FFF7A8FF084305D0012004E062
:1005B00020463946BDE8F08D0020054346EAE07646
:1005C0002C4337430A986305E40AA0EB0800002295
:1005D000FD0A44EA47540A3002D500200146E9E703
:1005E000010510196941DDE9084500196941BDE8B7
:1005F000F04DA2E770B521F0004303430CD0C1F3E6
:100600000A550024D5EB040564EB0403D617AD1A94
:10061000B34102DB0020014670BD201841EB0251BE
:1006200070BD0000064C074D06E0E06840F0010395
:1006300094E8070098471034AC42F6D3FFF77CFDEE
:10064000381E0008581E0008202A04DB203A21FA30
:1006500002F00021704721FA02F3D040C2F12002DB
:1006600091400843194670472DE9F04D00231A4682
:100670001B1A8A4103DB00200146BDE8F08DC1F35F
:100680000A52C1F3130141F480154FF0000BD1075A
:1006900002D100186D41521E0027044640F2FF119E
:1006A000384601EB620A3E468046024600204FF47F
:1006B0008011FFF7C9FFC2197141BB1846EB010059
:1006C000B4EB030C75EB000C04D3E41A65EB0005E6
:1006D00017460E46241908F101006D418046342862
:1006E000E3DDF91946EB0600091BA84103D24FF0E0
:1006F000FF32134601E0002213461BEB070046EBD6
:100700000A51BDE8F04DFFF718BF0EB540F2334176
:1007100002910021CDE900110A460B46FFF71CFFAC
:1007200003B000BD70B5C1F30A5201F000450024CA
:10073000C1F3130140F2FF3341F480119A4201DA10
:10074000002070BD40F233439A42A2F2334203DCF0
:100750005242FFF779FF00E090402C43F1D0404235
:1007600070BD00BFFEE7000000F0805111B10349E9
:10077000086001E00249486070470000040402403C
:100780000000024021B1026842F00102026004E070
:1007900002684FF6FE731A4002607047014600205F
:1007A000002201F0805313B1054B1A6801E0054B9C
:1007B0001A6802EA01030BB1012000E00020704733
:1007C000000402400000024010B50022026847F613
:1007D000F0739A430C6A8B6823430C6923434C697A
:1007E00023438C692343CC6923434C6A23438C6A9B
:1007F00023431A430260CB6843600B6883604B68F5
:10080000C36010BD4160704770472DE9F04102465A
:1008100000250026002000230024002791F803C0B3
:100820000CF00F0591F803C00CF0100CBCF1000F98
:1008300003D091F802C04CEA050591F800C0BCF164
:10084000000F31D0146800202BE04FF0010C0CFA9F
:1008500000F3B1F800C00CEA03069E4220D18300E9
:100860004FF00F0C0CFA03F7BC4305FA03FC4CEAFB
:10087000040491F803C0BCF1280F06D14FF0010C1D
:100880000CFA00FCC2F814C00AE091F803C0BCF1F5
:10089000480F05D14FF0010C0CFA00FCC2F810C053
:1008A000401C0828D1D31460B1F800C0BCF1FF0F80
:1008B00034DD546800202EE000F1080C4FF00108F0
:1008C00008FA0CF3B1F800C00CEA03069E4221D1ED
:1008D00083004FF00F0C0CFA03F7BC4305FA03FC3E
:1008E0004CEA040491F803C0BCF1280F05D100F1D3
:1008F000080C08FA0CF8C2F8148091F803C0BCF197
:10090000480F07D100F1080C4FF0010808FA0CF865
:10091000C2F81080401C0828CED35460BDE8F08196
:100920004161704700BFFEE700BFFEE7704710B5AA
:1009300004462146012000F09FF8012000F072F8E3
:1009400010BD000010B594B004460121042000F051
:10095000D1F80121084600F0BDF80121084600F059
:10096000A9F80220ADF84C0003208DF84E001820A5
:100970008DF84F0013A92748FFF747FF0020ADF877
:100980004000ADF84200ADF84440ADF8460010A973
:100990004FF0804000F0F0F96020ADF83000012009
:1009A000ADF832000020ADF838000CA94FF08040BF
:1009B00000F082F90821C80600F0D0F900214FF0BC
:1009C000804000F063F901229102080500F06AF905
:1009D00011480190114802901020039018200490B3
:1009E000002005908020069040000790800008902D
:1009F000002009904FF480500A9000200B9001A92C
:100A00000748FFF7E1FE00210548FFF7BBFE14B0E1
:100A100010BD000000080140380000401C0000200C
:100A20008000024010B5044604EB44004FF6FF720C
:100A300002EAC0010F48FFF7E5FE01210D48FFF76C
:100A4000A1FE0121880700F021F900BF4FF00070DE
:100A5000FFF7A4FE0128F9D100210648FFF792FE16
:100A60004FF00070FFF780FE00214FF0804000F053
:100A70000DF910BD8000024030B50246002312E09F
:100A800000200CE001FA00F404F400040CB13C2452
:100A900000E01E24054D25F81040441CE0B2182843
:100AA000F0DB5C1CE3B29342EADB30BD1C000020AB
:100AB0007047000029B1064A52690243044B5A614B
:100AC00004E0034A52698243014B5A6170470000B7
:100AD0000010024029B1064AD2690243044BDA6190
:100AE00004E0034AD2698243014BDA617047000097
:100AF0000010024029B1064A92690243044B9A61F0
:100B000004E0034A92698243014B9A6170470000F6
:100B100000100240704710B500F002F810BD000050
:100B20000CB50020019000903348006840F48030FC
:100B30003149086000BF3048006800F40030009080
:100B40000198401C0190009818B90198B0F5A06F69
:100B5000F1D12948006800F4003010B10120009064
:100B600001E0002000900098012843D1234800684C
:100B700040F01000214908600846006820F003009A
:100B800008600846006840F0020008601A484068A3
:100B9000194948600846406848600846406840F483
:100BA000806048600846406820F47C104860084631
:100BB000406840F4E81048600846006840F08070E3
:100BC000086000BF0C48006800F000700028F9D0F1
:100BD0000948406820F0030007494860084640681B
:100BE00040F00200486000BF0348406800F00C007D
:100BF0000828F9D10CBD000000100240002002407E
:100C0000042808D14FF0E021096941F004014FF0B8
:100C1000E022116107E04FF0E021096921F00401B1
:100C20004FF0E022116170477047000010B5134883
:100C3000006840F00100114908600846406810490A
:100C400008400E494860084600680E4908400B49B4
:100C500008600846006820F4802008600846406864
:100C600020F4FE0048604FF41F008860FFF753FF38
:100C70004FF000600449086010BD00000010024001
:100C80000000FFF8FFFFF6FE08ED00E021B102884A
:100C900042F00102028004E002884FF6FE731A401F
:100CA000028070471AB183890B43838102E08389F4
:100CB0008B4383817047000070B50024002200231D
:100CC000058C4FF6EF7635400584028C8388048BC3
:100CD00048F6FF752C404FF6FF452C400D884FF627
:100CE000FF7606EA05252C434FF6DF752A400D896D
:100CF00006EA05152A434D8806EA05152A43154DCF
:100D0000A84202D0144DA8421DD14FF67F752A404B
:100D10004D894FF6FF7606EA05152A434FF6BF7553
:100D20002A408D8806EA05152A434FF6FF352B40E9
:100D30004FF2FF752B408D8906EA85052B43CD893F
:100D400006EA85052B4383800483CD8805870284CA
:100D500070BD0000002C0140003401400A46002113
:100D6000018B4FF2FF7319404FF6FF7303EA022322
:100D70001943018370470000002202881D4B9842EE
:100D80000ED01D4B98420BD0B0F1804F08D01B4BBA
:100D9000984205D01A4B984202D01A4B984204D17F
:100DA0004FF68F731A404B881A43174B984207D05F
:100DB000164B984204D04FF6FF431A40CB881A4393
:100DC00002808B8883850B8803850A4B98420BD061
:100DD000094B984208D00E4B984205D00D4B9842D3
:100DE00002D00D4B984201D10B7A038601238382F6
:100DF00070470000002C0140003401400004004016
:100E000000080040000C00400010004000140040AA
:100E100000400140004401400048014000BFFEE79F
:100E200010B500214FF08040FFF730FF022103484A
:100E3000FFF776FD012000F0ADFC10BD0008014079
:100E4000490050EAC12018BF04204A0D18BF40F0E5
:100E5000010040F2FF72B2EB515F08BF40F00200A8
:100E6000012808BF052070472DE9F74F144694B0BC
:100E70000021C4E902111599079121F00045C949E3
:100E80008D4206DC1599C4E9000117B00020BDE8C9
:100E9000F08FC549DFF814A3A9423CDD0799C44E81
:100EA0000029C44FC44A1599534619DDFFF713FAB8
:100EB000554506D0C14AC24BFFF70DFAC4E90001FF
:100EC0000AE04FF0D352BE4BFFF705FA32463B46DD
:100ED000FFF701FAC4E9000117B00120BDE8F08F67
:100EE000FFF758F9554506D0B44AB54BFFF752F90C
:100EF000C4E900010AE04FF0D352B14BFFF74AF9C1
:100F000032463B46FFF746F9C4E9000117B04FF0FF
:100F1000FF30BDE8F08FAB49A942159978DB21F08D
:100F2000004183468846A84AA84BFFF7DAF9002219
:100F3000A74BFFF72FF9FFF7F5FB0990FFF7B2FA80
:100F400006460F469C4A5346FFF7CBF943465A469E
:100F5000FFF7C4F980468A46984A994B304639468D
:100F6000FFF7BFF92A0D01250B9242465346FFF7C2
:100F7000B5F9032DC4E9000139D00B98C1F30A512A
:100F8000401A05EB45111139814230DA9148C346C8
:100F9000784400EB0510CDF80CA00C90D0E90023AC
:100FA00030463946FFF79DF902460B4604910690FC
:100FB00058460399FFF78FF980468A4602460B464A
:100FC00058460399FFF787F9049B069AFFF783F9C0
:100FD00083460C9803913946D0E902233046FFF747
:100FE00080F95A46039BFFF776F96D1CBDE7079819
:100FF0000028A2BF099817B0BDE8F08F616881F0A2
:1010000000416160099817B04042BDE8F08FFFE7EA
:1010100084461598C1F31301C0F30A50A0F2F530CD
:101020004FEA601800F01F06C6F120001390002060
:101030000690079041F4801E05206D4676B1664A01
:1010400008EB00017A4452F8213002EB8101B340F1
:101050004A68139922FA01F1194305E05F4908EB48
:101060000002794451F82210A1FB0E27A1FB0C13BA
:101070001A449A4234BF0123002303EB070A05EB0D
:101080008003D3E901B70F448F4234BF012100210F
:1010900093448B4411B1934502D903E0934501D2A7
:1010A000012100E00021C3E901B7514445F82010B7
:1010B000011EA0F10100C1DC0298059F00F1005063
:1010C000800F12900298DDE903568000FFF7EAF9DD
:1010D000834628460D91FFF718FB6FF01D02FFF7BE
:1010E00089FACDE90E013046FFF70FFB6FF03D02A4
:1010F000FFF780FA80468A463846FFF706FB6FF016
:101100005D02FFF777FA0746424653461191FFF713
:1011100041F8DDE90E23FFF73DF85A460D9BFFF736
:1011200039F800250E465A4628460D9BFFF7D3F89E
:10113000DDE90E23FFF7CFF842465346FFF7CBF821
:101140003A46119BFFF7CAF8DFF898A0244A5346A5
:10115000FFF7C7F807468846234A244B31462846FE
:10116000FFF7BFF83A464346FFF714F807468846AC
:101170004FF0A842534631462846FFF7B2F83A46A8
:101180004346FFF707F8159A12F0004F04D0129A61
:1011900081F0004152421292C4E90001129817B046
:1011A000BDE8F08FFB21E93F7CD90240FB21F93FEC
:1011B0007370032E8A19A33B000040543163621AF6
:1011C00061B4D03DFB21394183C8C96D305FE43F34
:1011D0000000E03FB40D0000300D0000120D0000D3
:1011E000182D4454FB21F93D3326A611460B113C22
:1011F0002DE9FF4D21F0004807460C46B8F1795F14
:1012000008DAFFF78FFA002801BF0020324904B046
:10121000BDE8F08D3A46234610461946FFF761F8BF
:10122000054602462D480E460B460621784400F03E
:101230005DF82A463346FFF754F8DDE9022382467B
:101240008B4638462146FFF74CF804460F46524677
:101250005B4628463146FFF744F822463B46FFF7F7
:101260003AF807468A464FF0FF3228463146FFF7E4
:10127000C1F91B4A90450ADA3A465346FFF72BF864
:1012800004B00022BDE8F04D134BFFF727B8154A14
:101290004245A8BFA8F500154FF00004B8BF124D95
:1012A00022462B46FFF717F80646884622462B466D
:1012B00000200949FFF70FF804460D463A46534609
:1012C00030464146FFF707F804B022462B46BDE8FA
:1012D000F04DFFF703B800000000F03FE80A0000FF
:1012E0003333D33F0000E93F0000D23F2DE9F04106
:1012F0004F1E00EBC7010446D1E9000115461E460A
:1013000037F006020DD02A463346FEF7EAFF7F1E6D
:1013100004EBC703D3E90023FEF73CFF37F00602D6
:10132000F1D1022F25D0042F13D0062F18BFBDE80E
:10133000F0812A463346FEF7D4FFD4E90A23FEF7AC
:1013400029FF2A463346FEF7CCFFD4E90823FEF7EF
:1013500021FF2A463346FEF7C4FFD4E90623FEF7F1
:1013600019FF2A463346FEF7BCFFD4E90423FEF7F3
:1013700011FF2A463346FEF7B4FFD4E90223FEF7F5
:1013800009FF2A463346FEF7ACFFD4E90023BDE847
:10139000F041FEF7FFBE00002DE9FF4D054621F0AC
:1013A000004084B00C46B0F1795F0BDA2846FFF7B5
:1013B00047FD042808BF00F06FF8284608B0214612
:1013C000BDE8F08D2A460B461046FEF78AFF06461A
:1013D0000F462A462346FEF784FF804626488A4663
:1013E00032463B4605217844FFF780FF834610983C
:1013F000029160B3214A224B40465146FEF771FFED
:10140000CDE900015A4640465146029BFEF769FF6E
:1014100082468846DDE906014FF0FF32FFF7EAF821
:1014200052464346FEF757FF32463B46FEF759FF0A
:10143000DDE90623FEF74FFFDDE90023FEF74BFF52
:1014400008B02A462346BDE8F04DFEF747BF0B46DD
:101450005A4630463946FEF744FF084A084BFEF725
:1014600099FE42465346FEF73CFF08B02A46234603
:10147000BDE8F04DFEF78EBE260A000049555555D1
:101480005555C5BF0122FFF7B5B8002213461046D7
:101490001146FEF798BF0000024A00201107FFF72F
:1014A000A9B8000001FDFFFF02E008C8121F08C133
:1014B000002AFAD170477047002001E001C1121FD5
:1014C000002AFBD170470000014908607047000006
:1014D000180000202DE9F04D0546DFF8388221F094
:1014E00000408D4F82B00C46404520DBA0EB080148
:1014F00029430BD08949884201DC10D17DB102B06B
:1015000028462146BDE8F04DFFF7BCBF002CC7BF01
:10151000002001468248394602B0BDE8F08D012026
:10152000FFF7D2FF02B0BDE8F04DFFF7AEBF7D4937
:10153000884244DA7C498142A1BF79487B4902B0A4
:10154000BDE8F08D2A46234610461946FEF7C9FE2F
:101550008346024676480E460B4606217844FFF73E
:10156000C5FE5A463346FEF7BCFE074671488A461A
:101570005A46334604217844FFF7B8FE5A463346AC
:10158000FEF7AFFE00224346FEF704FE02460B467E
:1015900038465146FEF717FF2A462346FEF7A1FEBE
:1015A000654A664BFEF79AFE2A462346FEF796FEEC
:1015B00002B05B4ABDE8F04D5C4BFEF78FBE002CDD
:1015C0004FF000024BDA4646434628462146FEF7D6
:1015D000E1FD4FF0FF32FFF70DF804460246584890
:1015E0000D460B4606217844FFF780FE22462B4627
:1015F000FEF777FE804653488A4622462B46042152
:101600007844FFF773FE22462B46FEF76AFE00225F
:101610003346FEF7BFFD06468B462046294600F0BE
:101620003DFA04460D4632465B4640465146FEF7BB
:10163000CAFE22462B46FEF754FE3F4A3F4BFEF7BA
:101640004AFE22462B46FEF7A5FD0122FEF7D2FFF9
:1016500002B03B46BDE8F04D314AFEF73FBE2D4B90
:1016600028462146FEF73AFE4FF0FF32FEF7C2FF52
:1016700005460E4600F012FA00270C4680463A4610
:101680000B46FEF787FD82468B463A4623461046B8
:101690001946FEF726FE2A463346FEF71FFE52463F
:1016A0005B46FEF790FE824627488B462A46334625
:1016B00006217844FFF71AFE2A463346FEF711FE4C
:1016C000CDE9000121482A46334604217844FFF73A
:1016D0000DFE2A463346FEF704FE00220D4BFEF7B0
:1016E00059FD02460B46DDE90001FEF76CFE42465D
:1016F0002346FEF7F6FD52465B46FEF74BFD3A46A3
:101700002346FEF747FD02B00122BDE8F04DFEF78B
:1017100071BF00000000F03FFB2109400000F07F96
:10172000182D44540000E03F0000603CFB21F93FCD
:10173000680700007E070000075C143326A6913C72
:10174000DE060000F4060000120600002806000075
:1017500010B56FF00400FFF753FA0A4800680A4911
:10176000B0FBF1F0094908700846007800EB400131
:10177000C1EBC0104FF6FF7101EAC00004490880B8
:1017800010BD00000000002000127A0014000020AC
:10179000160000200146114A12884A434FF0E02308
:1017A0005A6100229A611A46126942F001021A61D6
:1017B00000BF4FF0E022106900F001021AB100F4FE
:1017C0008032002AF5D04FF0E022126922F00102A7
:1017D0004FF0E0231A6100229A6170471600002042
:1017E0000146114A12784A434FF0E0235A61002221
:1017F0009A611A46126942F001021A6100BF4FF065
:10180000E022106900F001021AB100F48032002ACF
:10181000F5D04FF0E022126922F001024FF0E023F0
:101820001A6100229A61704714000020FCB0FFF793
:10183000FDF9FFF78DFF5A20FFF784F800212448B7
:10184000CDE90210084623490022CB02CDE9000170
:10185000042000F043F84FF4F0721F4904A8FEF78B
:1018600087FC34E0002430E0FFF7DAFA002516E0C8
:1018700000260BE0C4EB041104AA02EB411101EBBA
:10188000451151F82600FFF752F8761C082EF1DBBF
:101890004FF4FA70FFF7A4FFFFF7C2FA6D1C0F2D8B
:1018A000E6DB002503E00020FFF741F86D1C082D62
:1018B000F9DBFFF7B5FA002504E04FF4FA70FFF703
:1018C0008FFF6D1C232DF8DB641C012CCCDBC9E7DA
:1018D00000004E4000000840E81A00082DE9F04FD3
:1018E0008FB082469046994618ACF0CC5046FEF731
:1018F000D9FD02460B46CDE9000140464946FEF7B8
:1019000062FDCDE90201FFF7E5FD83462046294649
:10191000FEF72AFC0BFB00FB5846CDF814B0FEF78F
:10192000C1FD22462B46CDE90601FEF74CFD3246AD
:101930003B46CDE90801FEF746FDCDE90A0100224C
:10194000134620462946FEF7BFFD22D8DDE90AB33B
:101950005A4630463946FEF7C4FCCDE9020100F094
:101960004DF8C0F1010000FB0AF00590FEF79AFD6A
:1019700022462B46CDE908011E481F49FEF7B1FC5F
:10198000CDE90601DDE90823FEF704FCCDE90C01F1
:101990002BE0DDE90A0132463B46CDE90201FEF7C4
:1019A000A0FCCDE9040100F029F800FB0AFB584631
:1019B000FEF778FD22462B46CDE908010D480E4979
:1019C000FEF78FFCCDE904015046FEF76BFDCDE933
:1019D0000201DDE90423FEF77EFCCDE90601DDE925
:1019E0000823FEF778FCCDE90C010AA80FB0BDE88A
:1019F000F08F000039B4C876BE9FF63F00B5254B86
:101A000021F0004287B09A4203DC00221346009284
:101A10002BE0214B9A4208D140B94FF00100FFF76B
:101A200053FDFFF732FD07B000BD03DBFFF72AFDD2
:101A300007B000BD02AAFFF717FA10F003014FF03C
:101A400001000DD0012914D002291AD00DF1080C83
:101A50009CE80F00FFF7CCFB07B081F0004100BD10
:101A60000DF1080C00909CE80F00FFF795FC07B003
:101A700000BD0DF1080C9CE80F00FFF7B9FB07B0A3
:101A800000BD0DF1080C00909CE80F00FFF784FCEE
:101A9000E2E70000FB21E93F0000F07F2DE9F04183
:101AA00006460F46FEF7E0FD041E0D4618BF012056
:101AB000284320F00040C0F17F6000F1E040C00FFB
:101AC0000ED0301C18BF0120384320F00040C0F178
:101AD0007F6000F1E040C00F04BF0120FFF7F4FC7D
:101AE00020462946BDE8F08100000000000000000B
:101AF000000000000000000000FF000000FF0000E8
:101B000000000000000000000000000000000000D5
:101B10000000000000FF000000FF000000000000C7
:101B200000000000000000000000000000000000B5
:101B300000FF000000FF00000000000000000000A7
:101B400000000000000000000000000000FF000096
:101B500000FF0000FF000000FF000000FF00000089
:101B6000FF000000FF000000FF000000FF00000079
:101B7000FF000000FF000000FF000000FF00000069
:101B8000FF000000FF000000000000000000000057
:101B90000000000000000000000000000000000045
:101BA0000000000000000000000000000000000035
:101BB0000000FF0000000000000000000000000026
:101BC000000000000000000000000000FF00000016
:101BD000FF00000000000000000000000000000006
:101BE0000000000000000000FF00000000000000F6
:101BF000FF000000000000000000000000000000E6
:101C000000000000000000000000000000000000D4
:101C1000FF000000000000000000000000000000C5
:101C200000000000000000000000000000000000B4
:101C300000000000000000000000000000000000A4
:101C40000000000000000000000000000000000094
:101C50000000000000000000000000000000000084
:101C60000000000000000000000000000000000074
:101C70000000000000000000000000000000000064
:101C80000000000000000000000000000000000054
:101C90000000000000000000000000000000000044
:101CA0000000000000000000000000000000000034
:101CB0000000000000000000000000000000000024
:101CC0000000000000000000555555555555C53F12
:101CD0007D6FEB0312D6D4BF5544880E55C1C93F62
:101CE0003B8F68B52882A4BF88B20175E0EF493FF9
:101CF00009F7FD0DE13D023F4B2D8A1C273A03C039
:101D0000C88A599CE52A004059018D1B6C06E6BF24
:101D100082922EB1C5B8B33F4C5555555555A53F88
:101D20007751C1166CC156BF9015CB19A001FA3E70
:101D3000AD529C804F7E92BEC4B1B4BD9EEE213E9A
:101D4000D43888BEE9FAA8BD00004054FB21F93F11
:101D50003163621A61B4D03D0000601A61B4D03DB5
:101D60007370032E8A19A33B0000002E8A19A33B2F
:101D7000C14920259A837B39000000000000000043
:101D80006E83F9A22915444ED15727FCC0DD34F5E6
:101D9000999562DB4190433CAB6351FE61C5BBDE6C
:101DA0003A6E24B7E0D24D42EA2E49061C92D10980
:101DB0001CEB1DFE3EA729B1F53582E88444BB2EFD
:101DC00026709CE9417E5FB439D69139F43953834A
:101DD0008B5F849C3B28F9BDFF97F81F0F9805DEA9
:101DE0008B112FEF1F6D0A5ACF7E366DB709CB27A7
:101DF000663F464F2DEA5F9EC7BA27757BF1E5EB3C
:101E0000F739073DEA92528AB15FFB6B085D8D1F7F
:101E1000A6F810111111813FD561C119A0012ABF87
:101E20007DFEB157E31DC73EEB9C2B8AE6E55ABE0B
:101E30007CD5CF5A3AD9E53D581E00080000002055
:101E40001C000000A8140008741E00081C000020DC
:101E5000C4160000B814000800A24A0400000000E4
:101E6000000000000102030406070809000000004A
:041E7000000000006E
:0400000508000131BD
:00000001FF
