:020000040800F2
:10000000E016002045010008090900080109000860
:10001000050900083F070008090E0008000000005D
:10002000000000000000000000000000010B0008BC
:10003000E5070008000000009D0A0008150C0008F4
:100040005F0100085F0100085F0100085F01000810
:100050005F0100085F0100085F0100085F01000800
:100060005F0100085F0100085F0100085F010008F0
:100070005F0100085F0100085F0100085F010008E0
:100080005F0100085F0100085F0100085F010008D0
:100090005F0100085F0100085F0100085F010008C0
:1000A0005F0100085F0100085F0100085F010008B0
:1000B0005F0100085F0100085F0100085F010008A0
:1000C0005F0100085F0100085F0100085F01000890
:1000D0005F0100085F0100085F0100085F01000880
:1000E0005F0100085F0100085F0100085F01000870
:1000F0005F0100085F0100085F0100085F01000860
:100100005F0100085F0100085F0100085F0100084F
:100110005F0100085F0100085F0100085F0100083F
:100120005F0100085F0100085F0100085F0100082F
:10013000DFF80CD000F064FA00480047CD17000843
:10014000E01600200648804706480047FEE7FEE725
:10015000FEE7FEE7FEE7FEE7FEE7FEE7FEE7FEE777
:10016000190C000831010008002800DA40427047ED
:100170002DE9FE4F804681EA0300C00F0C46009037
:1001800021F0004123F00045B8EB0200A94105D25F
:100190004046214690461C460B46024623F000404E
:1001A000104347D0270DC7F30A00C3F30A5102904A
:1001B000401A019040286BDAC3F3130040F4801B0F
:1001C0000098924620B10023D2EB030A63EB0B0B9D
:1001D00001985946C0F14002504600F07BF90646AE
:1001E0000D4650465946019A00F083F910EB08007D
:1001F0006141002487EA115284EAE7731A4340D030
:10020000009A62B3019A012A4FEA075215DC001BDB
:1002100061EB02014FF0004202EA0752CDE90042D1
:10022000001C41F5801132462B4600F083F903B0E3
:10023000BDE8F08F40462146F9E7001B61EB020163
:10024000001C41F5801300185B412018A2F500172F
:1002500047EB030140EAD570B6196D4111E06D0816
:100260004FEA360645EAC0754FEA0752001B61EBBC
:100270000201001C41F5801149084FEA30000019C5
:10028000514132462B4603B0BDE8F04F00F043B970
:100290000098012240000023D0EB020263EBE073E0
:1002A000009821464FEAE074B8EB000061EB0401CE
:1002B000E9E783F000435BE781F0004158E72DE96F
:1002C000FE4F81EA030404F0004421F00041009451
:1002D0004FF0000B23F0004350EA01045ED052EAD5
:1002E00003045BD0C3F30A54C1F30A552C44A4F2AF
:1002F000F3340194A0FB0254C1F3130141F48011C3
:10030000C3F3130343F4801301FB024400FB034EC9
:10031000840A970A44EA815447EA8357A4FB076892
:1003200002958D0A05FB07854FEA932C04FB0C54BC
:100330002705029D4FEA065847EA1637B5EB080530
:100340006EEB070C870E920E47EA811742EA831282
:10035000A7FB0201B6EB0B0164EB00042B0D43EA93
:100360000C335E1844EB1C50DA465146E7FB0201A1
:10037000C5F313044FEA0B3343EA14534FEA043234
:10038000019C43EA0603A4F10C040294009CCDE90D
:1003900000B400F0CFF803B0BDE8F08F00200146B4
:1003A000F9E72DE9F04D81EA030404F0004B21F058
:1003B000004514464FF0000A23F0004150EA0502C0
:1003C00020D054EA01021DD0C5F30A570246C5F3F6
:1003D0001303C1F31300C1F30A5640F4801543F42C
:1003E0008013A7EB0608101BD64608F2FD3873EB06
:1003F000050002D308F1010801E092185B41B8F151
:10040000000F03DA00200146BDE8F08D00204FF414
:100410008011064684460EE0171B73EB050705D3D3
:10042000121B63EB050306434CEA010C49084FEA33
:10043000300092185B4150EA0107EDD152EA030007
:1004400012D082EA040083EA0501084305D0101B9C
:10045000AB4106D20122002306E000224FF0004308
:1004600002E06FF0010253101AEB06004CEB08514A
:1004700010EB0A0041EB0B01BDE8F04D00F04BB86A
:100480000EB5C10F80EAE0700844CA07002140F2AF
:1004900033438DE80E000A460B4600F04BF803B0DC
:1004A00000BD000030B5041E71F1000404DB4FF004
:1004B0000044404264EB0101141E73F1000405DBAB
:1004C0001C464FF00043524263EB0403994208BFBD
:1004D000904230BD202A04DB203A00FA02F10020CD
:1004E00070479140C2F1200320FA03F31943904072
:1004F0007047202A06DBCB17203A41FA02F043EA84
:10050000E07306E041FA02F3D040C2F120029140CC
:1005100008431946704710B5141E73F1000408DA39
:10052000401C41F1000192185B411A4301D120F0B7
:10053000010010BD2DE9F04D92469B4611B1B1FA74
:1005400081F202E0B0FA80F220329046FFF7C2FF5B
:1005500004460F4640EA0A0041EA0B0153465A4658
:10056000084313D0114653EA010019D0C8F14002E4
:10057000504600F057F805460E465046594642464A
:10058000FFF7A8FF084305D0012004E020463946C4
:10059000BDE8F08D0020054346EAE0762C43374362
:1005A0000A986305E40AA0EB08000022FD0A44EA69
:1005B00047540A3002D500200146E9E70105101929
:1005C0006941DDE9084500196941BDE8F04DA2E740
:1005D00070B521F0004303430CD0C1F30A55002449
:1005E000D5EB040564EB0403D617AD1AB34102DB67
:1005F0000020014670BD201841EB025170BD000083
:10060000064C074D06E0E06840F0010394E807005F
:1006100098471034AC42F6D3FFF78EFDA81B0008B4
:10062000C81B0008202A04DB203A21FA02F000212E
:10063000704721FA02F3D040C2F1200291400843F2
:10064000194670472DE9F04D00231A461B1A8A41BE
:1006500003DB00200146BDE8F08DC1F30A52C1F36F
:10066000130141F480154FF0000BD10702D100189F
:100670006D41521E0027044640F2FF11384601EB3F
:10068000620A3E468046024600204FF48011FFF782
:10069000C9FFC2197141BB1846EB0100B4EB030C52
:1006A00075EB000C04D3E41A65EB000517460E4603
:1006B000241908F101006D4180463428E3DDF91961
:1006C00046EB0600091BA84103D24FF0FF32134648
:1006D00001E0002213461BEB070046EB0A51BDE880
:1006E000F04DFFF718BF0EB540F2334102910021E3
:1006F000CDE900110A460B46FFF71CFF03B000BD11
:1007000070B5C1F30A5201F000450024C1F3130192
:1007100040F2FF3341F480119A4201DA002070BDAB
:1007200040F233439A42A2F2334203DC5242FFF7D3
:1007300079FF00E090402C43F1D0404270BD00BFF3
:10074000FEE7000000F0805111B10349086001E0AC
:100750000249486070470000040402400000024063
:1007600021B1026842F00102026004E002684FF623
:10077000FE731A400260704701460020002201F01B
:10078000805313B1054B1A6801E0054B1A6802EA61
:1007900001030BB1012000E000207047000402407B
:1007A0000000024010B50022026847F6F0739A4339
:1007B0000C6A8B6823430C6923434C6923438C697F
:1007C0002343CC6923434C6A23438C6A23431A4353
:1007D0000260CB6843600B6883604B68C36010BDE8
:1007E0004160704770472DE9F04102460025002620
:1007F000002000230024002791F803C00CF00F050F
:1008000091F803C00CF0100CBCF1000F03D091F86C
:1008100002C04CEA050591F800C0BCF1000F31D0D0
:10082000146800202BE04FF0010C0CFA00F3B1F833
:1008300000C00CEA03069E4220D183004FF00F0C4B
:100840000CFA03F7BC4305FA03FC4CEA040491F8E4
:1008500003C0BCF1280F06D14FF0010C0CFA00FCCC
:10086000C2F814C00AE091F803C0BCF1480F05D1EA
:100870004FF0010C0CFA00FCC2F810C0401C082814
:10088000D1D31460B1F800C0BCF1FF0F34DD54685F
:1008900000202EE000F1080C4FF0010808FA0CF3DC
:1008A000B1F800C00CEA03069E4221D183004FF04C
:1008B0000F0C0CFA03F7BC4305FA03FC4CEA0404E2
:1008C00091F803C0BCF1280F05D100F1080C08FA1B
:1008D0000CF8C2F8148091F803C0BCF1480F07D19E
:1008E00000F1080C4FF0010808FA0CF8C2F810806B
:1008F000401C0828CED35460BDE8F08141617047A8
:1009000000BFFEE700BFFEE770472DE9F041074654
:100910000D4614461E46280400EB04208119384673
:1009200000F0A0F8384600F073F8BDE8F081000050
:1009300010B594B004460121042000F0D1F8012143
:10094000084600F0BDF80121084600F0A9F8022091
:10095000ADF84C0003208DF84E0018208DF84F00A4
:1009600013A92748FFF73FFF0020ADF84000ADF87E
:100970004200ADF84440ADF8460010A94FF0804069
:1009800000F0F0F96020ADF830000120ADF8320041
:100990000020ADF838000CA94FF0804000F082F93B
:1009A0000821C80600F0D0F900214FF0804000F087
:1009B00063F901229102080500F06AF911480190DB
:1009C00011480290102003901820049000200590F8
:1009D0008020069040000790800008900020099039
:1009E0004FF480500A9000200B9001A90748FFF7B0
:1009F000D9FE00210548FFF7B3FE14B010BD00007A
:100A000000080140380000401C0000208000024027
:100A100010B5044604EB44004FF6FF7202EAC00131
:100A20000F48FFF7DDFE01210D48FFF799FE012178
:100A3000880700F021F900BF4FF00070FFF79CFE1F
:100A40000128F9D100210648FFF78AFE4FF0007017
:100A5000FFF778FE00214FF0804000F00DF910BD47
:100A60008000024030B50246002312E000200CE076
:100A700001FA00F404F400040CB13C2400E01E244C
:100A8000054D25F81040441CE0B21828F0DB5C1C32
:100A9000E3B29342EADB30BD1C0000207047000047
:100AA00029B1064A52690243044B5A6104E0034AE1
:100AB00052698243014B5A617047000000100240A6
:100AC00029B1064AD2690243044BDA6104E0034AC1
:100AD000D2698243014BDA61704700000010024086
:100AE00029B1064A92690243044B9A6104E0034A21
:100AF00092698243014B9A617047000000100240E6
:100B0000704710B500F002F810BD00000CB50020D1
:100B1000019000903348006840F48030314908600B
:100B200000BF3048006800F4003000900198401C7D
:100B30000190009818B90198B0F5A06FF1D129483B
:100B4000006800F4003010B10120009001E00020A6
:100B500000900098012843D12348006840F010001D
:100B6000214908600846006820F003000860084634
:100B7000006840F0020008601A484068194948605F
:100B80000846406848600846406840F48060486015
:100B90000846406820F47C1048600846406840F4ED
:100BA000E81048600846006840F08070086000BFA8
:100BB0000C48006800F000700028F9D0094840682F
:100BC00020F00300074948600846406840F00200F2
:100BD000486000BF0348406800F00C000828F9D1C5
:100BE0000CBD00000010024000200240042808D183
:100BF0004FF0E021096941F004014FF0E02211615A
:100C000007E04FF0E021096921F004014FF0E022F4
:100C1000116170477047000010B51348006840F03C
:100C200001001149086008464068104908400E4913
:100C30004860084600680E4908400B4908600846AD
:100C4000006820F4802008600846406820F4FE0018
:100C500048604FF41F008860FFF753FF4FF00060BB
:100C60000449086010BD0000001002400000FFF8B9
:100C7000FFFFF6FE08ED00E021B1028842F001021C
:100C8000028004E002884FF6FE731A40028070472B
:100C90001AB183890B43838102E083898B4383816B
:100CA0007047000070B5002400220023058C4FF629
:100CB000EF7635400584028C8388048B48F6FF75F7
:100CC0002C404FF6FF452C400D884FF6FF7606EA84
:100CD00005252C434FF6DF752A400D8906EA0515D8
:100CE0002A434D8806EA05152A43154DA84202D02D
:100CF000144DA8421DD14FF67F752A404D894FF6FD
:100D0000FF7606EA05152A434FF6BF752A408D88FF
:100D100006EA05152A434FF6FF352B404FF2FF75C3
:100D20002B408D8906EA85052B43CD8906EA85058A
:100D30002B4383800483CD880587028470BD000027
:100D4000002C0140003401400A460021018B4FF283
:100D5000FF7319404FF6FF7303EA0223194301831F
:100D600070470000002202881D4B98420ED01D4B98
:100D700098420BD0B0F1804F08D01B4B984205D061
:100D80001A4B984202D01A4B984204D14FF68F73F7
:100D90001A404B881A43174B984207D0164B98427B
:100DA00004D04FF6FF431A40CB881A4302808B8849
:100DB00083850B8803850A4B98420BD0094B9842D8
:100DC00008D00E4B984205D00D4B984202D00D4BE7
:100DD000984201D10B7A0386012383827047000079
:100DE000002C014000340140000400400008004095
:100DF000000C004000100040001400400040014082
:100E0000004401400048014000BFFEE710B500214A
:100E10004FF08040FFF730FF02210348FFF76EFDDF
:100E2000012000F0ADFC10BD00080140490050EA6F
:100E3000C12018BF04204A0D18BF40F0010040F245
:100E4000FF72B2EB515F08BF40F00200012808BFFB
:100E5000052070472DE9F74F144694B00021C4E9EE
:100E600002111599079121F00045C9498D4206DC10
:100E70001599C4E9000117B00020BDE8F08FC549FD
:100E8000DFF814A3A9423CDD0799C44E0029C44FE2
:100E9000C44A1599534619DDFFF70BFA554506D09C
:100EA000C14AC24BFFF705FAC4E900010AE04FF05E
:100EB000D352BE4BFFF7FDF932463B46FFF7F9F937
:100EC000C4E9000117B00120BDE8F08FFFF750F929
:100ED000554506D0B44AB54BFFF74AF9C4E90001BD
:100EE0000AE04FF0D352B14BFFF742F932463B468E
:100EF000FFF73EF9C4E9000117B04FF0FF30BDE83D
:100F0000F08FAB49A942159978DB21F00041834667
:100F10008846A84AA84BFFF7D2F90022A74BFFF753
:100F200027F9FFF7EDFB0990FFF7AAFA06460F46EF
:100F30009C4A5346FFF7C3F943465A46FFF7BCF9AC
:100F400080468A46984A994B30463946FFF7B7F9AA
:100F50002A0D01250B9242465346FFF7ADF9032DAA
:100F6000C4E9000139D00B98C1F30A51401A05EBCE
:100F700045111139814230DA9148C346784400EB7B
:100F80000510CDF80CA00C90D0E90023304639466E
:100F9000FFF795F902460B460491069058460399CF
:100FA000FFF787F980468A4602460B465846039962
:100FB000FFF77FF9049B069AFFF77BF983460C98AD
:100FC00003913946D0E902233046FFF778F95A46B3
:100FD000039BFFF76EF96D1CBDE707980028A2BFC1
:100FE000099817B0BDE8F08F616881F00041616039
:100FF000099817B04042BDE8F08FFFE78446159886
:10100000C1F31301C0F30A50A0F2F5304FEA6018A3
:1010100000F01F06C6F120001390002006900790F4
:1010200041F4801E05206D4676B1664A08EB00014A
:101030007A4452F8213002EB8101B3404A68139997
:1010400022FA01F1194305E05F4908EB00027944F7
:1010500051F82210A1FB0E27A1FB0C131A449A424F
:1010600034BF0123002303EB070A05EB8003D3E918
:1010700001B70F448F4234BF0121002193448B44B8
:1010800011B1934502D903E0934501D2012100E05B
:101090000021C3E901B7514445F82010011EA0F119
:1010A0000100C1DC0298059F00F10050800F1290F2
:1010B0000298DDE903568000FFF7E2F983462846EF
:1010C0000D91FFF710FB6FF01D02FFF781FACDE9DC
:1010D0000E013046FFF707FB6FF03D02FFF778FA8D
:1010E00080468A463846FFF7FEFA6FF05D02FFF74A
:1010F0006FFA0746424653461191FFF739F8DDE98A
:101100000E23FFF735F85A460D9BFFF731F80025FF
:101110000E465A4628460D9BFFF7CBF8DDE90E2315
:10112000FFF7C7F842465346FFF7C3F83A46119B0C
:10113000FFF7C2F8DFF898A0244A5346FFF7BFF83C
:1011400007468846234A244B31462846FFF7B7F81E
:101150003A464346FFF70CF8074688464FF0A84248
:10116000534631462846FFF7AAF83A464346FEF76B
:10117000FFFF159A12F0004F04D0129A81F000413F
:1011800052421292C4E90001129817B0BDE8F08FE4
:10119000FB21E93F7CD90240FB21F93F7370032E0C
:1011A0008A19A33B000040543163621A61B4D03DF8
:1011B000FB21394183C8C96D305FE43F0000E03F47
:1011C000380B0000B40A0000960A0000182D4454A1
:1011D000FB21F93D3326A611460B113C2DE9FF4DAD
:1011E00021F0004807460C46B8F1795F08DAFFF7AE
:1011F00087FA002801BF0020324904B0BDE8F08D15
:101200003A46234610461946FFF759F80546024666
:101210002D480E460B460621784400F05DF82A461C
:101220003346FFF74CF8DDE9022382468B46384609
:101230002146FFF744F804460F4652465B462846CF
:101240003146FFF73CF822463B46FFF732F80746A7
:101250008A464FF0FF3228463146FFF7B9F91B4A5C
:1012600090450ADA3A465346FFF723F804B00022C5
:10127000BDE8F04D134BFFF71FB8154A4245A8BF14
:10128000A8F500154FF00004B8BF124D22462B46BA
:10129000FFF70FF80646884622462B4600200949EC
:1012A000FFF707F804460D463A4653463046414696
:1012B000FEF7FFFF04B022462B46BDE8F04DFEF7D7
:1012C000FBBF00000000F03F6C0800003333D33F49
:1012D0000000E93F0000D23F2DE9F0414F1E00EB36
:1012E000C7010446D1E9000115461E4637F0060243
:1012F0000DD02A463346FEF7E2FF7F1E04EBC703FC
:10130000D3E90023FEF734FF37F00602F1D1022FB4
:1013100025D0042F13D0062F18BFBDE8F0812A4630
:101320003346FEF7CCFFD4E90A23FEF721FF2A4615
:101330003346FEF7C4FFD4E90823FEF719FF2A4617
:101340003346FEF7BCFFD4E90623FEF711FF2A4619
:101350003346FEF7B4FFD4E90423FEF709FF2A461B
:101360003346FEF7ACFFD4E90223FEF701FF2A461D
:101370003346FEF7A4FFD4E90023BDE8F041FEF7B1
:10138000F7BE00002DE9FF4D054621F0004084B076
:101390000C46B0F1795F0BDA2846FFF747FD0428C9
:1013A00008BF00F06FF8284608B02146BDE8F08D70
:1013B0002A460B461046FEF782FF06460F462A468F
:1013C0002346FEF77CFF804626488A4632463B4647
:1013D00005217844FFF780FF83461098029160B39F
:1013E000214A224B40465146FEF769FFCDE90001F4
:1013F0005A4640465146029BFEF761FF82468846A8
:10140000DDE906014FF0FF32FFF7E2F852464346AE
:10141000FEF74FFF32463B46FEF751FFDDE906235C
:10142000FEF747FFDDE90023FEF743FF08B02A4639
:101430002346BDE8F04DFEF73FBF0B465A46304607
:101440003946FEF73CFF084A084BFEF791FE42463C
:101450005346FEF734FF08B02A462346BDE8F04D58
:10146000FEF786BEAA070000495555555555C5BF1C
:101470000122FFF7ADB80022134610461146FEF7D1
:1014800090BF0000024A00201107FFF7A1B800003A
:1014900001FDFFFF02E008C8121F08C1002AFAD1AF
:1014A00070477047002001E001C1121F002AFBD1E4
:1014B00070470000014908607047000018000020D4
:1014C0002DE9F04D0546DFF8388221F000408D4FC0
:1014D00082B00C46404520DBA0EB080129430BD02D
:1014E0008949884201DC10D17DB102B028462146ED
:1014F000BDE8F04DFFF7BCBF002CC7BF0020014680
:101500008248394602B0BDE8F08D0120FFF7D2FFD6
:1015100002B0BDE8F04DFFF7AEBF7D49884244DA26
:101520007C498142A1BF79487B4902B0BDE8F08D7A
:101530002A46234610461946FEF7C1FE8346024658
:1015400076480E460B4606217844FFF7C5FE5A46FC
:101550003346FEF7B4FE074671488A465A4633467C
:1015600004217844FFF7B8FE5A463346FEF7A7FE3B
:1015700000224346FEF7FCFD02460B463846514624
:10158000FEF70FFF2A462346FEF799FE654A664B93
:10159000FEF792FE2A462346FEF78EFE02B05B4A15
:1015A000BDE8F04D5C4BFEF787BE002C4FF000020B
:1015B0004BDA4646434628462146FEF7D9FD4FF012
:1015C000FF32FFF705F80446024658480D460B4621
:1015D00006217844FFF780FE22462B46FEF76FFE79
:1015E000804653488A4622462B4604217844FFF71A
:1015F00073FE22462B46FEF762FE00223346FEF7BC
:10160000B7FD06468B462046294600F0EDF9044614
:101610000D4632465B4640465146FEF7C2FE224624
:101620002B46FEF74CFE3F4A3F4BFEF742FE22465A
:101630002B46FEF79DFD0122FEF7CAFF02B03B4696
:10164000BDE8F04D314AFEF737BE2D4B2846214606
:10165000FEF732FE4FF0FF32FEF7BAFF05460E46A8
:1016600000F0C2F900270C4680463A460B46FEF7CA
:101670007FFD82468B463A46234610461946FEF7C2
:101680001EFE2A463346FEF717FE52465B46FEF71D
:1016900088FE824627488B462A46334606217844F0
:1016A000FFF71AFE2A463346FEF709FECDE9000190
:1016B00021482A46334604217844FFF70DFE2A4686
:1016C0003346FEF7FCFD00220D4BFEF751FD0246AE
:1016D0000B46DDE90001FEF764FE42462346FEF7B5
:1016E000EEFD52465B46FEF743FD3A462346FEF7C3
:1016F0003FFD02B00122BDE8F04DFEF769BF0000DA
:101700000000F03FFB2109400000F07F182D4454F9
:101710000000E03F0000603CFB21F93FEC040000CA
:1017200002050000075C143326A6913C6204000009
:101730007804000096030000AC03000010B56FF0C1
:101740000400FFF753FA0A4800680A49B0FBF1F0B9
:10175000094908700846007800EB4001C1EBC01051
:101760004FF6FF7101EAC0000449088010BD000077
:101770000000002000127A00140000201600002053
:101780000146114A12884A434FF0E0235A61002271
:101790009A611A46126942F001021A6100BF4FF0C5
:1017A000E022106900F001021AB100F48032002A30
:1017B000F5D04FF0E022126922F001024FF0E02351
:1017C0001A6100229A617047160000209CB0FFF752
:1017D00023FAFFF7B3FF5A20FFF7AAF800211048B9
:1017E000CDE902100F480A46C302CDE900100420DB
:1017F00000F01AF812E0FFF709FB00240CE004A83F
:1018000050F824300CA850F8242014A850F82410C4
:101810000120FFF77AF8641C082CF0DBEBE70000EE
:1018200000004E40000008402DE9F04F8FB0824686
:101830009046994618ACF0CC5046FEF721FE024681
:101840000B46CDE9000140464946FEF7AAFDCDE929
:101850000201FFF735FE834620462946FEF784FC49
:101860000BFB00FB5846CDF814B0FEF709FE2246EC
:101870002B46CDE90601FEF794FD32463B46CDE905
:101880000801FEF78EFDCDE90A010022134620462D
:101890002946FEF707FE22D8DDE90AB35A4630464C
:1018A0003946FEF70CFDCDE9020100F04DF8C0F11C
:1018B000010000FB0AF00590FEF7E2FD22462B46F0
:1018C000CDE908011E481F49FEF7F9FCCDE90601E4
:1018D000DDE90823FEF74CFCCDE90C012BE0DDE946
:1018E0000A0132463B46CDE90201FEF7E8FCCDE9AC
:1018F000040100F029F800FB0AFB5846FEF7C0FD82
:1019000022462B46CDE908010D480E49FEF7D7FCCB
:10191000CDE904015046FEF7B3FDCDE90201DDE952
:101920000423FEF7C6FCCDE90601DDE90823FEF736
:10193000C0FCCDE90C010AA80FB0BDE8F08F000093
:1019400039B4C876BE9FF63F00B5254B21F0004262
:1019500087B09A4203DC0022134600922BE0214B11
:101960009A4208D140B94FF00100FFF7A3FDFFF7FD
:1019700082FD07B000BD03DBFFF77AFD07B000BDB5
:1019800002AAFFF767FA10F003014FF001000DD033
:10199000012914D002291AD00DF1080C9CE80F007F
:1019A000FFF71CFC07B081F0004100BD0DF1080CF1
:1019B00000909CE80F00FFF7E5FC07B000BD0DF1BB
:1019C000080C9CE80F00FFF709FC07B000BD0DF103
:1019D000080C00909CE80F00FFF7D4FCE2E7000041
:1019E000FB21E93F0000F07F2DE9F04106460F465C
:1019F000FEF728FE041E0D4618BF0120284320F0E4
:101A00000040C0F17F6000F1E040C00F0ED0301CFC
:101A100018BF0120384320F00040C0F17F6000F182
:101A2000E040C00F04BF0120FFF744FD20462946D7
:101A3000BDE8F08100000000555555555555C53F8E
:101A40007D6FEB0312D6D4BF5544880E55C1C93FF4
:101A50003B8F68B52882A4BF88B20175E0EF493F8B
:101A600009F7FD0DE13D023F4B2D8A1C273A03C0CB
:101A7000C88A599CE52A004059018D1B6C06E6BFB7
:101A800082922EB1C5B8B33F4C5555555555A53F1B
:101A90007751C1166CC156BF9015CB19A001FA3E03
:101AA000AD529C804F7E92BEC4B1B4BD9EEE213E2D
:101AB000D43888BEE9FAA8BD00004054FB21F93FA4
:101AC0003163621A61B4D03D0000601A61B4D03D48
:101AD0007370032E8A19A33B0000002E8A19A33BC2
:101AE000C14920259A837B390000000000000000D6
:101AF0006E83F9A22915444ED15727FCC0DD34F579
:101B0000999562DB4190433CAB6351FE61C5BBDEFE
:101B10003A6E24B7E0D24D42EA2E49061C92D10912
:101B20001CEB1DFE3EA729B1F53582E88444BB2E8F
:101B300026709CE9417E5FB439D69139F4395383DC
:101B40008B5F849C3B28F9BDFF97F81F0F9805DE3B
:101B50008B112FEF1F6D0A5ACF7E366DB709CB2739
:101B6000663F464F2DEA5F9EC7BA27757BF1E5EBCE
:101B7000F739073DEA92528AB15FFB6B085D8D1F12
:101B8000A6F810111111813FD561C119A0012ABF1A
:101B90007DFEB157E31DC73EEB9C2B8AE6E55ABE9E
:101BA0007CD5CF5A3AD9E53DC81B0008000000207B
:101BB0001C00000094140008E41B00081C00002016
:101BC000C4160000A414000800A24A04000000008B
:101BD00000000000010203040607080900000000DD
:041BE0000000000001
:0400000508000131BD
:00000001FF
