:020000040800F2
:10000000A01A002045010008AD030008A503000860
:10001000A9030008E3010008990A00080000000095
:1000200000000000000000000000000019060008A9
:100030008902000800000000B50500082D0700082F
:100040005F0100085F0100085F0100085F01000810
:100050005F0100085F0100085F0100085F01000800
:100060005F0100085F0100085F0100085F010008F0
:100070005F0100085F0100085F0100085F010008E0
:100080005F0100085F0100085F0100085F010008D0
:100090005F0100085F0100085F0100085F010008C0
:1000A0005F0100085F0100085F0100085F010008B0
:1000B0005F010008910700085F0100085F01000868
:1000C0005F0100085F0100085F0100085F01000890
:1000D0005F0100085F0100085F0100085F01000880
:1000E0005F0100085F0100085F0100085F01000870
:1000F0005F0100085F0100085F0100085F01000860
:100100005F0100085F0100085F0100085F0100084F
:100110005F0100085F0100085F0100085F0100083F
:100120005F0100085F0100085F0100085F0100082F
:10013000DFF80CD000F018F800480047F10B000879
:10014000A01A00200648804706480047FEE7FEE761
:10015000FEE7FEE7FEE7FEE7FEE7FEE7FEE7FEE777
:100160003107000831010008064C074D06E0E06841
:1001700040F0010394E8070098471034AC42F6D3EE
:10018000FFF7DAFF080C0008280C000870B58C187F
:1001900010F8015B15F0070301D110F8013B2A119B
:1001A00006D110F8012B03E010F8016B01F8016B88
:1001B0005B1EF9D12B0705D40023521E0DD401F884
:1001C000013BFAE710F8013BCB1A921C03E013F84D
:1001D000015B01F8015B521EF9D5A142D8D3002082
:1001E00070BD00BFFEE7000000F0805111B103496F
:1001F000086001E0024948607047000004040240C2
:100200000000024021B1026842F00102026004E0F5
:1002100002684FF6FE731A400260704701460020E4
:10022000002201F0805313B1054B1A6801E0054B21
:100230001A6802EA01030BB1012000E000207047B8
:10024000000402400000024010B50022026847F698
:10025000F0739A430C6A8B6823430C6923434C69FF
:1002600023438C692343CC6923434C6A23438C6A20
:1002700023431A430260CB6843600B6883604B687A
:10028000C36010BD4160704770472DE9F0410246E0
:1002900000250026002000230024002791F803C039
:1002A0000CF00F0591F803C00CF0100CBCF1000F1E
:1002B00003D091F802C04CEA050591F800C0BCF1EA
:1002C000000F31D0146800202BE04FF0010C0CFA25
:1002D00000F3B1F800C00CEA03069E4220D183006F
:1002E0004FF00F0C0CFA03F7BC4305FA03FC4CEA81
:1002F000040491F803C0BCF1280F06D14FF0010CA3
:100300000CFA00FCC2F814C00AE091F803C0BCF17A
:10031000480F05D14FF0010C0CFA00FCC2F810C0D8
:10032000401C0828D1D31460B1F800C0BCF1FF0F05
:1003300034DD546800202EE000F1080C4FF0010875
:1003400008FA0CF3B1F800C00CEA03069E4221D172
:1003500083004FF00F0C0CFA03F7BC4305FA03FCC3
:100360004CEA040491F803C0BCF1280F05D100F158
:10037000080C08FA0CF8C2F8148091F803C0BCF11C
:10038000480F07D100F1080C4FF0010808FA0CF8EB
:10039000C2F81080401C0828CED35460BDE8F0811C
:1003A0004161704700BFFEE700BFFEE770470000F5
:1003B00070B5002100230F22C47804B3154C2468C3
:1003C00004F4E064C4F5E064210AC1F10403CA4006
:1003D000447804FA03F184781440214309010E4C57
:1003E0000678A155047804F01F050124AC40057877
:1003F0006D11AD0005F1E025C5F8004109E0047874
:1004000004F01F050124AC40044D0678761145F830
:10041000264070BD0CED00E000E400E080E100E06B
:1004200002490143024A1160704700000000FA05CA
:100430000CED00E010B504462146012000F09EF8C6
:10044000012000F071F810BD10B594B004460121F0
:10045000042000F0D1F80121084600F0BDF8012188
:10046000084600F0A9F80220ADF84C0003208DF8F2
:100470004E0018208DF84F0013A92748FFF705FFFD
:100480000020ADF84000ADF84200ADF84440ADF8B2
:10049000460010A94FF0804000F0ACFA6020ADF8A3
:1004A00030000120ADF832000020ADF838000CA972
:1004B0004FF0804000F03CFA0821C80600F08AFAAC
:1004C00000214FF0804000F0FDF901229102080563
:1004D00000F004FA11480190114802901020039096
:1004E000182004900020059080200690400007907E
:1004F00080000890002009904FF480500A9000205E
:100500000B9001A90748FFF79FFE00210548FFF760
:1005100079FE14B010BD0000000801403800004012
:10052000E00300208000024010B5044604EB4400C4
:100530004FF6FF7202EAC0010F48FFF7A3FE012148
:100540000D48FFF75FFE0121880700F0BBF900BFEF
:100550004FF00070FFF762FE0128F9D10021064834
:10056000FFF750FE4FF00070FFF73EFE00214FF006
:10057000804000F0A7F910BD8000024030B502466F
:10058000002312E000200CE001FA00F404F400045F
:100590000CB13C2400E01E24054D25F81040441CFD
:1005A000E0B21828F0DB5C1CE3B29342EADB30BD1A
:1005B000E00300207047000029B1064A5269024357
:1005C000044B5A6104E0034A52698243014B5A6169
:1005D000704700000010024029B1064AD269024368
:1005E000044BDA6104E0034AD2698243014BDA61C9
:1005F000704700000010024029B1064A9269024388
:10060000044B9A6104E0034A92698243014B9A6168
:100610007047000000100240704710B500F002F86B
:1006200010BD00000CB50020019000903348006818
:1006300040F480303149086000BF3048006800F461
:10064000003000900198401C0190009818B9019862
:10065000B0F5A06FF1D12948006800F4003010B166
:100660000120009001E0002000900098012843D173
:100670002348006840F010002149086008460068DF
:1006800020F0030008600846006840F0020008609F
:100690001A4840681949486008464068486008465A
:1006A000406840F4806048600846406820F47C1050
:1006B00048600846406840F4E81048600846006812
:1006C00040F08070086000BF0C48006800F00070C7
:1006D0000028F9D00948406820F003000749486025
:1006E0000846406840F00200486000BF0348406888
:1006F00000F00C000828F9D10CBD000000100240E9
:1007000000200240042808D14FF0E021096941F09F
:1007100004014FF0E022116107E04FF0E021096988
:1007200021F004014FF0E022116170477047000092
:1007300010B51348006840F00100114908600846F0
:100740004068104908400E494860084600680E4954
:1007500008400B4908600846006820F480200860C3
:100760000846406820F4FE0048604FF41F0088608F
:10077000FFF753FF4FF000600449086010BD000010
:10078000001002400000FFF8FFFFF6FE08ED00E059
:1007900010B50121444800F0AAF801287ED100F0EC
:1007A0007DF942490968C1EB0111414A02EB81110F
:1007B000404A126801EB42110868FFF73BFE3B49D3
:1007C0000968C1EB01113A4A02EB8111394A1268FA
:1007D00001EB42114868FFF72DFE34490968C1EB6F
:1007E0000111334A02EB8111324A126801EB4211C6
:1007F0008868FFF71FFE2D490968C1EB01112C4ADB
:1008000002EB81112B4A126801EB4211C868FFF715
:1008100011FE26490968C1EB0111254A02EB81113D
:10082000244A126801EB42110869FFF703FE1F49D1
:100830000968C1EB01111E4A02EB81111D4A1268C1
:1008400001EB42114869FFF7F5FD18490968C1EB52
:100850000111174A02EB8111164A126801EB42118D
:100860008869FFF7E7FD11490968C1EB0111104ADA
:1008700002EB81110F4A126801EB4211C869FFF7C0
:10088000D9FD0C480068401C0A4908600846006809
:100890001E2801D100200860012100E002E002488A
:1008A00000F00DF810BD000000040040040000201E
:1008B0000800002000000020CA4302827047CA439B
:1008C0000282704721B1028842F00102028004E0F6
:1008D00002884FF6FE731A40028070471AB183896E
:1008E0000B43838102E083898B438381704730B55A
:1008F0000246002000230024158A05EA0103958999
:1009000005EA010413B10CB1012000E0002030BD64
:100910001AB183890B43838102E083898B438381EE
:10092000704701894FF6F87211400181704700004D
:1009300070B5002400220023058C4FF6EF76354079
:100940000584028C8388048B48F6FF752C404FF693
:10095000FF452C400D884FF6FF7606EA05252C430F
:100960004FF6DF752A400D8906EA05152A434D88A2
:1009700006EA05152A43154DA84202D0144DA84297
:100980001DD14FF67F752A404D894FF6FF7606EA56
:1009900005152A434FF6BF752A408D8806EA0515CE
:1009A0002A434FF6FF352B404FF2FF752B408D89C0
:1009B00006EA85052B43CD8906EA85052B4383800E
:1009C0000483CD880587028470BD0000002C01409F
:1009D000003401400A460021018B4FF2FF73194099
:1009E0004FF6FF7303EA02231943018370478184A2
:1009F00070470000002202881D4B98420ED01D4B0C
:100A000098420BD0B0F1804F08D01B4B984205D0D4
:100A10001A4B984202D01A4B984204D14FF68F736A
:100A20001A404B881A43174B984207D0164B9842EE
:100A300004D04FF6FF431A40CB881A4302808B88BC
:100A400083850B8803850A4B98420BD0094B98424B
:100A500008D00E4B984205D00D4B984202D00D4B5A
:100A6000984201D10B7A03860123838270470000EC
:100A7000002C014000340140000400400008004008
:100A8000000C0040001000400014004000400140F5
:100A9000004401400048014000BFFEE710B50021BE
:100AA0004FF08040FFF70EFF02210348FFF778FC6C
:100AB000012000F077F810BD0008014002E008C8EE
:100AC000121F08C1002AFAD170477047002001E0C8
:100AD00001C1121F002AFBD1704700001FB5012180
:100AE0000220FFF779FD4FF4E060FFF799FC1D202D
:100AF0008DF80C0001208DF80F0000208DF80D00FE
:100B000003208DF80E0003A8FFF752FC1348FFF7EF
:100B100008FF0020ADF80600ADF802009F20ADF8F8
:100B2000040040F2E730ADF8000000208DF8080026
:100B300069460A48FFF75EFF01210848FFF7BCFE3F
:100B4000012211460548FFF7E3FE00210348FFF7A5
:100B50004EFF01210148FFF7B5FE1FBD0004004014
:100B600010B56FF00400FFF7CDFD0A4800680A4990
:100B7000B0FBF1F0094908700846007800EB40012D
:100B8000C1EBC0104FF6FF7101EAC00004490880B4
:100B900010BD0000C803002000127A00DC03002012
:100BA000DE0300200146114A12884A434FF0E02339
:100BB0005A6100229A611A46126942F001021A61D2
:100BC00000BF4FF0E022106900F001021AB100F4FA
:100BD0008032002AF5D04FF0E022126922F00102A3
:100BE0004FF0E0231A6100229A617047DE03002073
:100BF000FFF79EFDFFF7B4FF5A20FFF725FCFFF734
:100C00006DFF00BFFEE70000280C00080000002078
:100C1000E00300008C010008F00C0008E003002055
:100C2000C0160000CC0A000801165AFF04091A1C5D
:100C3000091224E91CA92409161C0922240926806A
:100C40000922C009E0DF013C1401030314040A096E
:100C50001A03049401030214020504141340371408
:100C6000269781142DBDA01A2A04141E977F140CF8
:100C70003F35140104041415473D1432E5C11442F4
:100C8000FED81453FAD8144EFCD81437FED71426C5
:100C9000E2BC140C413614165649142DF1CB14380D
:100CA000F6D0142E8D7A1432A08A1433FBD3142676
:100CB000EAC3140D4B3E14030B09141262531416AD
:100CC0007D681404100D14061814141A8A74140F75
:100CD00058495C0209079DBA019429AC291409FD01
:100CE000E0617CA24A0438400802030406070809B0
:0400000508000131BD
:00000001FF
